{
  "_format": "hh-sol-artifact-1",
  "contractName": "VotingRewardManager",
  "sourceName": "contracts/voting/implementation/VotingRewardManager.sol",
  "abi": [
    {
      "inputs": [
        {
          "internalType": "address",
          "name": "_governance",
          "type": "address"
        },
        {
          "internalType": "uint256",
          "name": "_feePercentageUpdateOffset",
          "type": "uint256"
        },
        {
          "internalType": "uint256",
          "name": "_defaultFeePercentage",
          "type": "uint256"
        }
      ],
      "stateMutability": "nonpayable",
      "type": "constructor"
    },
    {
      "anonymous": false,
      "inputs": [
        {
          "indexed": true,
          "internalType": "address",
          "name": "dataProvider",
          "type": "address"
        },
        {
          "indexed": false,
          "internalType": "uint256",
          "name": "value",
          "type": "uint256"
        },
        {
          "indexed": false,
          "internalType": "uint256",
          "name": "validFromEpoch",
          "type": "uint256"
        }
      ],
      "name": "FeePercentageChanged",
      "type": "event"
    },
    {
      "anonymous": false,
      "inputs": [
        {
          "indexed": false,
          "internalType": "address",
          "name": "proposedGovernance",
          "type": "address"
        }
      ],
      "name": "GovernanceProposed",
      "type": "event"
    },
    {
      "anonymous": false,
      "inputs": [
        {
          "indexed": false,
          "internalType": "address",
          "name": "oldGovernance",
          "type": "address"
        },
        {
          "indexed": false,
          "internalType": "address",
          "name": "newGoveranance",
          "type": "address"
        }
      ],
      "name": "GovernanceUpdated",
      "type": "event"
    },
    {
      "anonymous": false,
      "inputs": [
        {
          "indexed": false,
          "internalType": "uint256",
          "name": "amount",
          "type": "uint256"
        },
        {
          "indexed": false,
          "internalType": "address",
          "name": "currencyAddress",
          "type": "address"
        },
        {
          "indexed": false,
          "internalType": "bytes4",
          "name": "offerSymbol",
          "type": "bytes4"
        },
        {
          "indexed": false,
          "internalType": "bytes4",
          "name": "quoteSymbol",
          "type": "bytes4"
        },
        {
          "indexed": false,
          "internalType": "address[]",
          "name": "leadProviders",
          "type": "address[]"
        },
        {
          "indexed": false,
          "internalType": "uint256",
          "name": "rewardBeltPPM",
          "type": "uint256"
        },
        {
          "indexed": false,
          "internalType": "uint256",
          "name": "elasticBandWidthPPM",
          "type": "uint256"
        },
        {
          "indexed": false,
          "internalType": "uint256",
          "name": "iqrSharePPM",
          "type": "uint256"
        },
        {
          "indexed": false,
          "internalType": "uint256",
          "name": "pctSharePPM",
          "type": "uint256"
        },
        {
          "indexed": false,
          "internalType": "uint256",
          "name": "flrValue",
          "type": "uint256"
        },
        {
          "indexed": false,
          "internalType": "address",
          "name": "remainderClaimer",
          "type": "address"
        }
      ],
      "name": "RewardOffered",
      "type": "event"
    },
    {
      "inputs": [
        {
          "internalType": "address",
          "name": "claimer",
          "type": "address"
        }
      ],
      "name": "authorizeClaimer",
      "outputs": [],
      "stateMutability": "nonpayable",
      "type": "function"
    },
    {
      "inputs": [
        {
          "internalType": "address",
          "name": "recepient",
          "type": "address"
        }
      ],
      "name": "authorizeRecepient",
      "outputs": [],
      "stateMutability": "nonpayable",
      "type": "function"
    },
    {
      "inputs": [
        {
          "internalType": "address",
          "name": "",
          "type": "address"
        }
      ],
      "name": "authorizedClaimer",
      "outputs": [
        {
          "internalType": "address",
          "name": "",
          "type": "address"
        }
      ],
      "stateMutability": "view",
      "type": "function"
    },
    {
      "inputs": [
        {
          "internalType": "address",
          "name": "",
          "type": "address"
        }
      ],
      "name": "authorizedRecepient",
      "outputs": [
        {
          "internalType": "address",
          "name": "",
          "type": "address"
        }
      ],
      "stateMutability": "view",
      "type": "function"
    },
    {
      "inputs": [],
      "name": "claimGovernance",
      "outputs": [],
      "stateMutability": "nonpayable",
      "type": "function"
    },
    {
      "inputs": [
        {
          "components": [
            {
              "internalType": "bytes32[]",
              "name": "merkleProof",
              "type": "bytes32[]"
            },
            {
              "components": [
                {
                  "internalType": "uint256",
                  "name": "amount",
                  "type": "uint256"
                },
                {
                  "internalType": "uint256",
                  "name": "weight",
                  "type": "uint256"
                },
                {
                  "internalType": "address",
                  "name": "currencyAddress",
                  "type": "address"
                },
                {
                  "internalType": "address payable",
                  "name": "voterAddress",
                  "type": "address"
                },
                {
                  "internalType": "uint256",
                  "name": "epochId",
                  "type": "uint256"
                }
              ],
              "internalType": "struct ClaimRewardBody",
              "name": "claimRewardBody",
              "type": "tuple"
            }
          ],
          "internalType": "struct ClaimReward",
          "name": "_data",
          "type": "tuple"
        },
        {
          "internalType": "address",
          "name": "beneficiary",
          "type": "address"
        }
      ],
      "name": "claimReward",
      "outputs": [],
      "stateMutability": "nonpayable",
      "type": "function"
    },
    {
      "inputs": [
        {
          "components": [
            {
              "internalType": "uint256",
              "name": "amount",
              "type": "uint256"
            },
            {
              "internalType": "uint256",
              "name": "weight",
              "type": "uint256"
            },
            {
              "internalType": "address",
              "name": "currencyAddress",
              "type": "address"
            },
            {
              "internalType": "address payable",
              "name": "voterAddress",
              "type": "address"
            },
            {
              "internalType": "uint256",
              "name": "epochId",
              "type": "uint256"
            }
          ],
          "internalType": "struct ClaimRewardBody",
          "name": "_data",
          "type": "tuple"
        }
      ],
      "name": "claimRewardBodyDefinition",
      "outputs": [],
      "stateMutability": "nonpayable",
      "type": "function"
    },
    {
      "inputs": [
        {
          "internalType": "address",
          "name": "",
          "type": "address"
        },
        {
          "internalType": "uint256",
          "name": "",
          "type": "uint256"
        }
      ],
      "name": "dataProviderFeePercentages",
      "outputs": [
        {
          "internalType": "uint16",
          "name": "value",
          "type": "uint16"
        },
        {
          "internalType": "uint240",
          "name": "validFromEpoch",
          "type": "uint240"
        }
      ],
      "stateMutability": "view",
      "type": "function"
    },
    {
      "inputs": [],
      "name": "defaultFeePercentage",
      "outputs": [
        {
          "internalType": "uint256",
          "name": "",
          "type": "uint256"
        }
      ],
      "stateMutability": "view",
      "type": "function"
    },
    {
      "inputs": [
        {
          "internalType": "uint256",
          "name": "",
          "type": "uint256"
        },
        {
          "internalType": "address",
          "name": "",
          "type": "address"
        }
      ],
      "name": "epochProviderUnclaimedRewardAmount",
      "outputs": [
        {
          "internalType": "uint256",
          "name": "",
          "type": "uint256"
        }
      ],
      "stateMutability": "view",
      "type": "function"
    },
    {
      "inputs": [
        {
          "internalType": "uint256",
          "name": "",
          "type": "uint256"
        },
        {
          "internalType": "address",
          "name": "",
          "type": "address"
        }
      ],
      "name": "epochProviderUnclaimedRewardWeight",
      "outputs": [
        {
          "internalType": "uint256",
          "name": "",
          "type": "uint256"
        }
      ],
      "stateMutability": "view",
      "type": "function"
    },
    {
      "inputs": [],
      "name": "erc20PriceOracle",
      "outputs": [
        {
          "internalType": "contract IERC20PriceOracle",
          "name": "",
          "type": "address"
        }
      ],
      "stateMutability": "view",
      "type": "function"
    },
    {
      "inputs": [],
      "name": "feePercentageUpdateOffset",
      "outputs": [
        {
          "internalType": "uint256",
          "name": "",
          "type": "uint256"
        }
      ],
      "stateMutability": "view",
      "type": "function"
    },
    {
      "inputs": [
        {
          "internalType": "address",
          "name": "_dataProvider",
          "type": "address"
        }
      ],
      "name": "getDataProviderCurrentFeePercentage",
      "outputs": [
        {
          "internalType": "uint256",
          "name": "",
          "type": "uint256"
        }
      ],
      "stateMutability": "view",
      "type": "function"
    },
    {
      "inputs": [
        {
          "internalType": "address",
          "name": "_dataProvider",
          "type": "address"
        }
      ],
      "name": "getDataProviderScheduledFeePercentageChanges",
      "outputs": [
        {
          "internalType": "uint256[]",
          "name": "_feePercentageBIPS",
          "type": "uint256[]"
        },
        {
          "internalType": "uint256[]",
          "name": "_validFromEpoch",
          "type": "uint256[]"
        },
        {
          "internalType": "bool[]",
          "name": "_fixed",
          "type": "bool[]"
        }
      ],
      "stateMutability": "view",
      "type": "function"
    },
    {
      "inputs": [
        {
          "internalType": "address",
          "name": "tokenAddress",
          "type": "address"
        }
      ],
      "name": "getNextRewardEpochBalance",
      "outputs": [
        {
          "internalType": "uint256",
          "name": "balance",
          "type": "uint256"
        }
      ],
      "stateMutability": "view",
      "type": "function"
    },
    {
      "inputs": [],
      "name": "governance",
      "outputs": [
        {
          "internalType": "address",
          "name": "",
          "type": "address"
        }
      ],
      "stateMutability": "view",
      "type": "function"
    },
    {
      "inputs": [
        {
          "internalType": "address",
          "name": "_governance",
          "type": "address"
        }
      ],
      "name": "initialise",
      "outputs": [],
      "stateMutability": "nonpayable",
      "type": "function"
    },
    {
      "inputs": [],
      "name": "minimalOfferValueWei",
      "outputs": [
        {
          "internalType": "uint256",
          "name": "",
          "type": "uint256"
        }
      ],
      "stateMutability": "view",
      "type": "function"
    },
    {
      "inputs": [
        {
          "components": [
            {
              "internalType": "uint256",
              "name": "amount",
              "type": "uint256"
            },
            {
              "internalType": "address",
              "name": "currencyAddress",
              "type": "address"
            },
            {
              "internalType": "bytes4",
              "name": "offerSymbol",
              "type": "bytes4"
            },
            {
              "internalType": "bytes4",
              "name": "quoteSymbol",
              "type": "bytes4"
            },
            {
              "internalType": "address[]",
              "name": "leadProviders",
              "type": "address[]"
            },
            {
              "internalType": "uint256",
              "name": "rewardBeltPPM",
              "type": "uint256"
            },
            {
              "internalType": "uint256",
              "name": "elasticBandWidthPPM",
              "type": "uint256"
            },
            {
              "internalType": "uint256",
              "name": "iqrSharePPM",
              "type": "uint256"
            },
            {
              "internalType": "uint256",
              "name": "pctSharePPM",
              "type": "uint256"
            },
            {
              "internalType": "address",
              "name": "remainderClaimer",
              "type": "address"
            }
          ],
          "internalType": "struct Offer",
          "name": "_data",
          "type": "tuple"
        }
      ],
      "name": "offerDefinition",
      "outputs": [],
      "stateMutability": "nonpayable",
      "type": "function"
    },
    {
      "inputs": [
        {
          "components": [
            {
              "internalType": "uint256",
              "name": "amount",
              "type": "uint256"
            },
            {
              "internalType": "address",
              "name": "currencyAddress",
              "type": "address"
            },
            {
              "internalType": "bytes4",
              "name": "offerSymbol",
              "type": "bytes4"
            },
            {
              "internalType": "bytes4",
              "name": "quoteSymbol",
              "type": "bytes4"
            },
            {
              "internalType": "address[]",
              "name": "leadProviders",
              "type": "address[]"
            },
            {
              "internalType": "uint256",
              "name": "rewardBeltPPM",
              "type": "uint256"
            },
            {
              "internalType": "uint256",
              "name": "elasticBandWidthPPM",
              "type": "uint256"
            },
            {
              "internalType": "uint256",
              "name": "iqrSharePPM",
              "type": "uint256"
            },
            {
              "internalType": "uint256",
              "name": "pctSharePPM",
              "type": "uint256"
            },
            {
              "internalType": "address",
              "name": "remainderClaimer",
              "type": "address"
            }
          ],
          "internalType": "struct Offer[]",
          "name": "offers",
          "type": "tuple[]"
        }
      ],
      "name": "offerRewards",
      "outputs": [],
      "stateMutability": "payable",
      "type": "function"
    },
    {
      "inputs": [],
      "name": "priceExpirySeconds",
      "outputs": [
        {
          "internalType": "uint256",
          "name": "",
          "type": "uint256"
        }
      ],
      "stateMutability": "view",
      "type": "function"
    },
    {
      "inputs": [
        {
          "internalType": "address",
          "name": "_governance",
          "type": "address"
        }
      ],
      "name": "proposeGovernance",
      "outputs": [],
      "stateMutability": "nonpayable",
      "type": "function"
    },
    {
      "inputs": [],
      "name": "proposedGovernance",
      "outputs": [
        {
          "internalType": "address",
          "name": "",
          "type": "address"
        }
      ],
      "stateMutability": "view",
      "type": "function"
    },
    {
      "inputs": [
        {
          "internalType": "uint256",
          "name": "_feePercentageBIPS",
          "type": "uint256"
        }
      ],
      "name": "setDataProviderFeePercentage",
      "outputs": [
        {
          "internalType": "uint256",
          "name": "",
          "type": "uint256"
        }
      ],
      "stateMutability": "nonpayable",
      "type": "function"
    },
    {
      "inputs": [
        {
          "internalType": "address",
          "name": "_erc20PriceOracle",
          "type": "address"
        }
      ],
      "name": "setERC20PriceOracle",
      "outputs": [],
      "stateMutability": "nonpayable",
      "type": "function"
    },
    {
      "inputs": [
        {
          "internalType": "uint256",
          "name": "_minimalOfferValueWei",
          "type": "uint256"
        },
        {
          "internalType": "uint256",
          "name": "_priceExpirySeconds",
          "type": "uint256"
        }
      ],
      "name": "setMinimalOfferParameters",
      "outputs": [],
      "stateMutability": "nonpayable",
      "type": "function"
    },
    {
      "inputs": [
        {
          "internalType": "address",
          "name": "_voting",
          "type": "address"
        }
      ],
      "name": "setVoting",
      "outputs": [],
      "stateMutability": "nonpayable",
      "type": "function"
    },
    {
      "inputs": [
        {
          "internalType": "address",
          "name": "_votingManager",
          "type": "address"
        }
      ],
      "name": "setVotingManager",
      "outputs": [],
      "stateMutability": "nonpayable",
      "type": "function"
    },
    {
      "inputs": [
        {
          "internalType": "address",
          "name": "_governance",
          "type": "address"
        }
      ],
      "name": "transferGovernance",
      "outputs": [],
      "stateMutability": "nonpayable",
      "type": "function"
    },
    {
      "inputs": [],
      "name": "voting",
      "outputs": [
        {
          "internalType": "contract Voting",
          "name": "",
          "type": "address"
        }
      ],
      "stateMutability": "view",
      "type": "function"
    },
    {
      "inputs": [],
      "name": "votingManager",
      "outputs": [
        {
          "internalType": "contract VotingManager",
          "name": "",
          "type": "address"
        }
      ],
      "stateMutability": "view",
      "type": "function"
    }
  ],
  "bytecode": "0x60c06040523480156200001157600080fd5b506040516200329f3803806200329f8339810160408190526200003491620001e9565b82806001600160a01b03811615620000515762000051816200010a565b506001600160a01b038116620000a15760405162461bcd60e51b815260206004820152601060248201526f5f676f7665726e616e6365207a65726f60801b60448201526064015b60405180910390fd5b506001600160a01b038316620000fa5760405162461bcd60e51b815260206004820152601a60248201527f676f7665726e616e63652061646472657373206973207a65726f000000000000604482015260640162000098565b60809190915260a052506200022e565b600154600160a01b900460ff1615620001665760405162461bcd60e51b815260206004820152601460248201527f696e697469616c6973656420213d2066616c7365000000000000000000000000604482015260640162000098565b6001805460ff60a01b1916600160a01b179055600054604080516001600160a01b03928316815291831660208301527f434a2db650703b36c824e745330d6397cdaa9ee2cc891a4938ae853e1c50b68d910160405180910390a1600080546001600160a01b039092166001600160a01b0319928316179055600180549091169055565b600080600060608486031215620001ff57600080fd5b83516001600160a01b03811681146200021757600080fd5b602085015160409095015190969495509392505050565b60805160a051613036620002696000396000818161051f01526123f801526000818161024d0152818161078a015261117c01526130366000f3fe6080604052600436106101e35760003560e01c8063972fd7fb11610102578063c66ad39d11610095578063dc1d890611610064578063dc1d89061461064b578063e49efc081461066b578063f353817d14610681578063fce1ccca146106cb57600080fd5b8063c66ad39d146105cb578063cfbcd25f146105eb578063d38bfff41461060b578063da1bcdf01461062b57600080fd5b8063b4824034116100d1578063b48240341461050d578063c21f885914610541578063c373a08e1461058b578063c4d07951146105ab57600080fd5b8063972fd7fb146104775780639d6a890f14610497578063a2a0c23f146104b7578063a8936804146104ed57600080fd5b80633aee9f091161017a5780635d36b190116101495780635d36b190146103d457806360f7ac97146103e95780636f48427114610409578063868df0b01461044157600080fd5b80633aee9f09146103295780633b8452f5146103615780634eb56cd5146103815780635aa6e6751461039c57600080fd5b80632636434d116101b65780632636434d146102b157806329d4c22f146102c657806333b7971e146102e4578063349840b61461031357600080fd5b806305e9753f146101e857806316e693281461021b57806316fe49c71461023b5780631c50a5391461026f575b600080fd5b3480156101f457600080fd5b506102086102033660046129a0565b6106eb565b6040519081526020015b60405180910390f35b34801561022757600080fd5b506102086102363660046129bd565b610734565b34801561024757600080fd5b506102087f000000000000000000000000000000000000000000000000000000000000000081565b34801561027b57600080fd5b5061028f61028a3660046129d6565b6109f2565b6040805161ffff90931683526001600160f01b03909116602083015201610212565b6102c46102bf366004612a02565b610a35565b005b3480156102d257600080fd5b506102c46102e1366004612a77565b50565b3480156102f057600080fd5b506103046102ff3660046129a0565b610ee1565b60405161021293929190612aca565b34801561031f57600080fd5b5061020860065481565b34801561033557600080fd5b50610208610344366004612b35565b600a60209081526000928352604080842090915290825290205481565b34801561036d57600080fd5b506102c461037c3660046129a0565b611204565b34801561038d57600080fd5b506102c46102e1366004612b65565b3480156103a857600080fd5b506000546103bc906001600160a01b031681565b6040516001600160a01b039091168152602001610212565b3480156103e057600080fd5b506102c461129f565b3480156103f557600080fd5b506001546103bc906001600160a01b031681565b34801561041557600080fd5b50610208610424366004612b35565b600b60209081526000928352604080842090915290825290205481565b34801561044d57600080fd5b506103bc61045c3660046129a0565b600c602052600090815260409020546001600160a01b031681565b34801561048357600080fd5b506102c46104923660046129a0565b61135b565b3480156104a357600080fd5b506102c46104b23660046129a0565b61140c565b3480156104c357600080fd5b506103bc6104d23660046129a0565b600d602052600090815260409020546001600160a01b031681565b3480156104f957600080fd5b506102c4610508366004612ba1565b6114e1565b34801561051957600080fd5b506102087f000000000000000000000000000000000000000000000000000000000000000081565b34801561054d57600080fd5b506102c461055c3660046129a0565b336000908152600d6020526040902080546001600160a01b0319166001600160a01b0392909216919091179055565b34801561059757600080fd5b506102c46105a63660046129a0565b611516565b3480156105b757600080fd5b506102c46105c63660046129a0565b611594565b3480156105d757600080fd5b506102c46105e6366004612bc3565b611639565b3480156105f757600080fd5b506102086106063660046129a0565b611e0d565b34801561061757600080fd5b506102c46106263660046129a0565b611e95565b34801561063757600080fd5b506002546103bc906001600160a01b031681565b34801561065757600080fd5b506004546103bc906001600160a01b031681565b34801561067757600080fd5b5061020860055481565b34801561068d57600080fd5b506102c461069c3660046129a0565b336000908152600c6020526040902080546001600160a01b0319166001600160a01b0392909216919091179055565b3480156106d757600080fd5b506003546103bc906001600160a01b031681565b6000600e60f854601a811061070257610702612c0f565b600902016004016000836001600160a01b03166001600160a01b03168152602001908152602001600020549050919050565b60006127108211156107865760405162461bcd60e51b8152602060048201526016602482015275199959481c195c98d95b9d1859d9481a5b9d985b1a5960521b60448201526064015b60405180910390fd5b60007f0000000000000000000000000000000000000000000000000000000000000000600260009054906101000a90046001600160a01b03166001600160a01b031663705626976040518163ffffffff1660e01b8152600401602060405180830381865afa1580156107fc573d6000803e3d6000fd5b505050506040513d601f19601f820116820180604052508101906108209190612c25565b61082a9190612c54565b33600090815260096020526040902080549192509080156109165781610851600183612c67565b8154811061086157610861612c0f565b6000918252602090912001546201000090046001600160f01b03168310156108cb5760405162461bcd60e51b815260206004820152601c60248201527f6665652070657263656e7461676520757064617465206661696c656400000000604482015260640161077d565b816108d7600183612c67565b815481106108e7576108e7612c0f565b6000918252602090912001546201000090046001600160f01b0316830361091657610913600182612c67565b90505b8154810361092b578154600101825560008290525b8482828154811061093e5761093e612c0f565b6000918252602090912001805461ffff191661ffff92909216919091179055600160f01b831061097057610970612c7a565b8282828154811061098357610983612c0f565b60009182526020918290200180546001600160f01b0393909316620100000261ffff909316929092179091556040805187815291820185905233917fd89f05622c2dcb0b4fcaa19e62fc2a2b0923955685fb7b0c641467f764244abc910160405180910390a250909392505050565b60096020528160005260406000208181548110610a0e57600080fd5b60009182526020909120015461ffff811692506201000090046001600160f01b0316905082565b60025460408051637056269760e01b815290516000926001600160a01b03169163705626979160048083019260209291908290030181865afa158015610a7f573d6000803e3d6000fd5b505050506040513d601f19601f82011682018060405250810190610aa39190612c25565b9050600854811015610af75760405162461bcd60e51b815260206004820152601b60248201527f2870616e6963292065706f6368206e6f74206d6f6e6f746f6e69630000000000604482015260640161077d565b600854811115610b3e576008819055610b19610b14826001612c54565b611f03565b60f8819055610b3e90600e90601a8110610b3557610b35612c0f565b60090201611f93565b6000600e60f854601a8110610b5557610b55612c0f565b6009020190506000805b84811015610e6a5736868683818110610b7a57610b7a612c0f565b9050602002810190610b8c9190612c90565b9050600080610ba160408401602085016129a0565b6001600160a01b031603610bc457610bba823585612c54565b9350508035610d0b565b60045460009081906001600160a01b03166341976e09610bea60408701602088016129a0565b6040516001600160e01b031960e084901b1681526001600160a01b0390911660048201526024016040805180830381865afa158015610c2d573d6000803e3d6000fd5b505050506040513d601f19601f82011682018060405250810190610c519190612cca565b60065463ffffffff928316945091169150610c6c8242612c67565b10610ca95760405162461bcd60e51b815260206004820152600d60248201526c1c1c9a58d9481d1bdbc81bdb19609a1b604482015260640161077d565b610cb4843583612cfd565b9250600554831015610d085760405162461bcd60e51b815260206004820152601860248201527f6f666665722076616c756520697320746f6f20736d616c6c0000000000000000604482015260640161077d565b50505b610d1e61010083013560e0840135612c54565b620f424014610d7b5760405162461bcd60e51b8152602060048201526024808201527f697172536861726550504d202b20706374536861726550504d20213d203130306044820152630303030360e41b606482015260840161077d565b610d98610d8e60408401602085016129a0565b86903085356120d8565b6000610dac610140840161012085016129a0565b90506001600160a01b038116610dbf5750335b7f1363088e24f6c80297e76a53f4d2508aebe35c54493d82666338aa7128f478e98335610df260408601602087016129a0565b610e026060870160408801612d14565b610e126080880160608901612d14565b610e1f6080890189612d3e565b8960a001358a60c001358b60e001358c61010001358c8c604051610e4e9c9b9a99989796959493929190612d8f565b60405180910390a150505080610e6390612e4c565b9050610b5f565b5034811015610eda5760405162461bcd60e51b815260206004820152603660248201527f6e61746976652063757272656e637920616d6f756e74206f66666572656420696044820152751cc81b195cdcc81d1a185b881d985b1d59481cd95b9d60521b606482015260840161077d565b5050505050565b6001600160a01b038116600090815260096020526040902080546060918291829190156111fc5760025460408051637056269760e01b815290516000926001600160a01b03169163705626979160048083019260209291908290030181865afa158015610f52573d6000803e3d6000fd5b505050506040513d601f19601f82011682018060405250810190610f769190612c25565b82549091505b600081118015610fc157508183610f94600184612c67565b81548110610fa457610fa4612c0f565b6000918252602090912001546201000090046001600160f01b0316115b15610fd85780610fd081612e65565b915050610f7c565b8254600090610fe8908390612c67565b905080156111f8578067ffffffffffffffff81111561100957611009612e7c565b604051908082528060200260200182016040528015611032578160200160208202803683370190505b5096508067ffffffffffffffff81111561104e5761104e612e7c565b604051908082528060200260200182016040528015611077578160200160208202803683370190505b5095508067ffffffffffffffff81111561109357611093612e7c565b6040519080825280602002602001820160405280156110bc578160200160208202803683370190505b50945060005b818110156111f657846110d58483612c54565b815481106110e5576110e5612c0f565b600091825260209091200154885161ffff9091169089908390811061110c5761110c612c0f565b6020908102919091010152846111228483612c54565b8154811061113257611132612c0f565b9060005260206000200160000160029054906101000a90046001600160f01b03166001600160f01b031687828151811061116e5761116e612c0f565b6020026020010181815250507f0000000000000000000000000000000000000000000000000000000000000000848883815181106111ae576111ae612c0f565b60200260200101516111c09190612c67565b14158682815181106111d4576111d4612c0f565b91151560209283029190910190910152806111ee81612e4c565b9150506110c2565b505b5050505b509193909250565b6000546001600160a01b0316331461122e5760405162461bcd60e51b815260040161077d90612e92565b6001600160a01b03811661127d5760405162461bcd60e51b81526020600482015260166024820152756f7261636c652061646472657373206973207a65726f60501b604482015260640161077d565b600480546001600160a01b0319166001600160a01b0392909216919091179055565b6001546001600160a01b031633146112e95760405162461bcd60e51b815260206004820152600d60248201526c1b9bdd0818db185a5b585a5b9d609a1b604482015260640161077d565b600054600154604080516001600160a01b0393841681529290911660208301527f434a2db650703b36c824e745330d6397cdaa9ee2cc891a4938ae853e1c50b68d910160405180910390a160018054600080546001600160a01b03199081166001600160a01b03841617909155169055565b6000546001600160a01b031633146113855760405162461bcd60e51b815260040161077d90612e92565b6002546001600160a01b0316156113e95760405162461bcd60e51b815260206004820152602260248201527f766f74696e67206d616e6167657220616c726561647920696e697469616c697a604482015261195960f21b606482015260840161077d565b600280546001600160a01b0319166001600160a01b0383161790556102e161228a565b600154600160a01b900460ff161561145d5760405162461bcd60e51b8152602060048201526014602482015273696e697469616c6973656420213d2066616c736560601b604482015260640161077d565b6001805460ff60a01b1916600160a01b179055600054604080516001600160a01b03928316815291831660208301527f434a2db650703b36c824e745330d6397cdaa9ee2cc891a4938ae853e1c50b68d91015b60405180910390a1600080546001600160a01b039092166001600160a01b0319928316179055600180549091169055565b6000546001600160a01b0316331461150b5760405162461bcd60e51b815260040161077d90612e92565b600591909155600655565b6000546001600160a01b031633146115405760405162461bcd60e51b815260040161077d90612e92565b600180546001600160a01b0319166001600160a01b0383169081179091556040519081527f1f95fb40be3a947982072902a887b521248d1d8931a39eb38f84f4d6fd758b699060200160405180910390a150565b6000546001600160a01b031633146115be5760405162461bcd60e51b815260040161077d90612e92565b6003546001600160a01b0316156116175760405162461bcd60e51b815260206004820152601a60248201527f766f74696e6720616c726561647920696e697469616c697a6564000000000000604482015260640161077d565b600380546001600160a01b0319166001600160a01b0392909216919091179055565b60025460408051637056269760e01b815290516000926001600160a01b03169163705626979160048083019260209291908290030181865afa158015611683573d6000803e3d6000fd5b505050506040513d601f19601f820116820180604052508101906116a79190612c25565b90506008548110156116fb5760405162461bcd60e51b815260206004820152601b60248201527f2870616e6963292065706f6368206e6f74206d6f6e6f746f6e69630000000000604482015260640161077d565b600854811115611734576008819055611718610b14826001612c54565b60f881905561173490600e90601a8110610b3557610b35612c0f565b336001600160a01b038316148061176457506001600160a01b038281166000908152600c60205260409020541633145b6117a95760405162461bcd60e51b81526020600482015260166024820152753737ba1030baba3437b934bd32b21031b630b4b6b2b960511b604482015260640161077d565b60006117bd36859003850160208601612ebb565b6002546080820151604051633cb6b68160e01b81529293506000926001600160a01b0390921691633cb6b681916117fa9160040190815260200190565b602060405180830381865afa158015611817573d6000803e3d6000fd5b505050506040513d601f19601f8201168201806040525081019061183b9190612c25565b600254604051630bd454a360e41b8152600481018390529192506001600160a01b03169063bd454a3090602401602060405180830381865afa158015611885573d6000803e3d6000fd5b505050506040513d601f19601f820116820180604052508101906118a99190612c25565b8260800151146119215760405162461bcd60e51b815260206004820152603b60248201527f636c61696d2065706f6368206973206e6f7420746865206c617374207072696360448201527f652065706f6368206f6620746865207265776172642065706f63680000000000606482015260840161077d565b60085481106119855760405162461bcd60e51b815260206004820152602a60248201527f63616e206f6e6c7920636c61696d207265776172647320666f722070726576696044820152696f75732065706f63687360b01b606482015260840161077d565b600061199082611f03565b90506000600e82601a81106119a7576119a7612c0f565b60090201905060008460400151905060006119c18961231a565b9050600081896040516020016119ea9291909182526001600160a01b0316602082015260400190565b60408051601f1981840301815291815281516020928301206000818152600790935291205490915060ff1615611a625760405162461bcd60e51b815260206004820152601f60248201527f7265776172642068617320616c7265616479206265656e20636c61696d656400604482015260640161077d565b6003546080880151604051630aab8ba560e01b815260048101919091526000916001600160a01b031690630aab8ba590602401602060405180830381865afa158015611ab2573d6000803e3d6000fd5b505050506040513d601f19601f82011682018060405250810190611ad69190612c25565b905080611b4b5760405162461bcd60e51b815260206004820152603860248201527f636c61696d2065706f6368206e6f742066696e616c697a6564207965742c206e60448201527f6f74206d65726b6c6520726f6f7420617661696c61626c650000000000000000606482015260840161077d565b611b958184611b5a8e80612d3e565b8080602002602001604051908101604052809392919081815260200183836020028082843760009201919091525092949392505061234d9050565b611be15760405162461bcd60e51b815260206004820152601e60248201527f4d65726b6c652070726f6f6620666f7220726577617264206661696c65640000604482015260640161077d565b6000808960200151118015611c12575060608901516001600160a01b03166000908152600487016020526040902054155b15611c4857611c25896060015189612363565b60408a015160608b015160208c01518c51939450611c48938a939291908661241f565b60035460608a01516040516365c6023560e01b81526001600160a01b038e811660048301529182166024820152604481018b905260009291909116906365c6023590606401602060405180830381865afa158015611caa573d6000803e3d6000fd5b505050506040513d601f19601f82011682018060405250810190611cce9190612c25565b905089606001516001600160a01b03168c6001600160a01b031614611cf4576000611d02565b611d028a606001518a612363565b915060016007600086815260200190815260200160002060006101000a81548160ff0219169083151502179055506000806001600160a01b0316600d60008f6001600160a01b03166001600160a01b0316815260200190815260200160002060009054906101000a90046001600160a01b03166001600160a01b031614611da3576001600160a01b03808e166000908152600d602052604090205416611da5565b8c5b905060006127108c6000015185611dbc9190612cfd565b611dc69190612f60565b60208d015115611dd7576000611dda565b8c515b611de49190612c54565b60608d0151909150611dfc908a908a908587866125dc565b505050505050505050505050505050565b6000611e8f82600260009054906101000a90046001600160a01b03166001600160a01b031663705626976040518163ffffffff1660e01b8152600401602060405180830381865afa158015611e66573d6000803e3d6000fd5b505050506040513d601f19601f82011682018060405250810190611e8a9190612c25565b612363565b92915050565b6000546001600160a01b03163314611ebf5760405162461bcd60e51b815260040161077d90612e92565b600054604080516001600160a01b03928316815291831660208301527f434a2db650703b36c824e745330d6397cdaa9ee2cc891a4938ae853e1c50b68d91016114b0565b600854600090611f14601a84612c54565b1015611f885760405162461bcd60e51b815260206004820152603a60248201527f7265776172642062616c616e6365206e6f742070726573657276656420666f7260448201527f2065706f636820746f6f2066617220696e207468652070617374000000000000606482015260840161077d565b611e8f601a83612f74565b600781016008820160005b82548110156120b6576000838281548110611fbb57611fbb612c0f565b60009182526020808320909101546001600160a01b031680835260048801825260408084208490556005890183528084208490556006890190925290822082905591505b83548110156120a357600084828154811061201c5761201c612c0f565b60009182526020808320909101546001600160a01b038681168085528b845260408086209290931680865291845282852085905580855260018c018452828520828652845282852085905580855260028c0184528285208286528452828520859055845260038b0183528184209084529091528120555061209c81612e4c565b9050611fff565b5050806120af90612e4c565b9050611f9e565b506120c5600784016000612959565b6120d3600884016000612959565b505050565b6001600160a01b038316156121cd576040516323b872dd60e01b81523360048201526001600160a01b038381166024830152604482018390528491908216906323b872dd906064016020604051808303816000875af115801561213f573d6000803e3d6000fd5b505050506040513d601f19601f820116820180604052508101906121639190612f88565b6121cb5760405162461bcd60e51b815260206004820152603360248201527f636f756c646e2774207472616e736665722063757272656e637920616d6f756e6044820152723a103a37903932bbb0b9321036b0b730b3b2b960691b606482015260840161077d565b505b6001600160a01b0383166000908152600485016020819052604082205490916006870191900361222857600786018054600181018255600091825260209091200180546001600160a01b0319166001600160a01b0387161790555b6001600160a01b03851660009081526020839052604081208054859290612250908490612c54565b90915550506001600160a01b0385166000908152602082905260408120805485929061227d908490612c54565b9091555050505050505050565b600260009054906101000a90046001600160a01b03166001600160a01b031663705626976040518163ffffffff1660e01b8152600401602060405180830381865afa1580156122dd573d6000803e3d6000fd5b505050506040513d601f19601f820116820180604052508101906123019190612c25565b600881905561231590610b14906001612c54565b60f855565b6000816020016040516020016123309190612faa565b604051602081830303815290604052805190602001209050919050565b60008261235a85846128da565b14949350505050565b6001600160a01b038216600090815260096020526040812080545b80156123f5578061238e81612e65565b9150508181815481106123a3576123a3612c0f565b6000918252602090912001546201000090046001600160f01b031684106123f0578181815481106123d6576123d6612c0f565b60009182526020909120015461ffff169250611e8f915050565b61237e565b507f0000000000000000000000000000000000000000000000000000000000000000949350505050565b6001600160a01b0380861660009081526003880160209081526040808320938816835290839052902054151580612454575083155b1561245f57506125d4565b600887018054600180820183556000928352602080842090920180546001600160a01b0319166001600160a01b038a8116918217909255908a16845260028b01835260408085208c8552818620938d0185528186209286528085528186208a9055938690528420889055919290919085156124ee576127106124e18789612cfd565b6124eb9190612f60565b90505b6124f88188612c67565b6001600160a01b03808b16600090815260208681526040808320949094558581528382208b9055918d16815260058e01918290529182208054919260048f01928b929190612547908490612c54565b90915550506001600160a01b038c1660009081526020828152604080832054918590529091205411156125cc5760405162461bcd60e51b815260206004820152602760248201527f696e697469616c697a656420616d6f756e74206578636565647320746f74616c604482015266081c995dd85c9960ca1b606482015260840161077d565b505050505050505b505050505050565b6001600160a01b0380861660009081526020888152604080832060028b01835281842094891684528483528184205492819052908320549093929190612623908790612cfd565b61262d9190612f60565b6001600160a01b03881660009081526020859052604090205490915081111561268f5760405162461bcd60e51b8152602060048201526014602482015273696e73756666696369656e742062616c616e636560601b604482015260640161077d565b600061269b8583612c54565b6001600160a01b038a16600090815260068c0160205260409020549091508111156127085760405162461bcd60e51b815260206004820152601d60248201527f696e73756666696369656e7420617661696c61626c6520616d6f756e74000000604482015260640161077d565b6001600160a01b03881660009081526020859052604081208054849290612730908490612c67565b90915550506001600160a01b0388166000908152602084905260408120805488929061275d908490612c67565b90915550506001600160a01b038916600090815260068b0160205260408120805483929061278c908490612c67565b90915550600090506001600160a01b038a16156128215760405163a9059cbb60e01b81526001600160a01b038981166004830152602482018490528b919082169063a9059cbb906044016020604051808303816000875af11580156127f5573d6000803e3d6000fd5b505050506040513d601f19601f820116820180604052508101906128199190612f88565b915050612875565b6040516001600160a01b038916908390600081818185875af1925050503d806000811461286a576040519150601f19603f3d011682016040523d82523d6000602084013e61286f565b606091505b50909150505b806128cd5760405162461bcd60e51b815260206004820152602260248201527f6661696c656420746f207472616e7366657220636c61696d65642062616c616e604482015261636560f01b606482015260840161077d565b5050505050505050505050565b600081815b845181101561291f5761290b828683815181106128fe576128fe612c0f565b6020026020010151612927565b91508061291781612e4c565b9150506128df565b509392505050565b6000818310612943576000828152602084905260409020612952565b60008381526020839052604090205b9392505050565b50805460008255906000526020600020908101906102e191905b808211156129875760008155600101612973565b5090565b6001600160a01b03811681146102e157600080fd5b6000602082840312156129b257600080fd5b81356129528161298b565b6000602082840312156129cf57600080fd5b5035919050565b600080604083850312156129e957600080fd5b82356129f48161298b565b946020939093013593505050565b60008060208385031215612a1557600080fd5b823567ffffffffffffffff80821115612a2d57600080fd5b818501915085601f830112612a4157600080fd5b813581811115612a5057600080fd5b8660208260051b8501011115612a6557600080fd5b60209290920196919550909350505050565b600060a08284031215612a8957600080fd5b50919050565b600081518084526020808501945080840160005b83811015612abf57815187529582019590820190600101612aa3565b509495945050505050565b606081526000612add6060830186612a8f565b602083820381850152612af08287612a8f565b8481036040860152855180825282870193509082019060005b81811015612b27578451151583529383019391830191600101612b09565b509098975050505050505050565b60008060408385031215612b4857600080fd5b823591506020830135612b5a8161298b565b809150509250929050565b600060208284031215612b7757600080fd5b813567ffffffffffffffff811115612b8e57600080fd5b8201610140818503121561295257600080fd5b60008060408385031215612bb457600080fd5b50508035926020909101359150565b60008060408385031215612bd657600080fd5b823567ffffffffffffffff811115612bed57600080fd5b830160c08186031215612bff57600080fd5b91506020830135612b5a8161298b565b634e487b7160e01b600052603260045260246000fd5b600060208284031215612c3757600080fd5b5051919050565b634e487b7160e01b600052601160045260246000fd5b80820180821115611e8f57611e8f612c3e565b81810381811115611e8f57611e8f612c3e565b634e487b7160e01b600052600160045260246000fd5b6000823561013e19833603018112612ca757600080fd5b9190910192915050565b805163ffffffff81168114612cc557600080fd5b919050565b60008060408385031215612cdd57600080fd5b612ce683612cb1565b9150612cf460208401612cb1565b90509250929050565b8082028115828204841417611e8f57611e8f612c3e565b600060208284031215612d2657600080fd5b81356001600160e01b03198116811461295257600080fd5b6000808335601e19843603018112612d5557600080fd5b83018035915067ffffffffffffffff821115612d7057600080fd5b6020019150600581901b3603821315612d8857600080fd5b9250929050565b8c81526001600160a01b038c811660208301526001600160e01b03198c811660408401528b1660608301526101606080830181905282018990526000908a906101808401835b8c811015612dfe578335612de88161298b565b8316825260209384019390910190600101612dd5565b508093505050508760a08301528660c08301528560e08301528461010083015283610120830152612e3b6101408301846001600160a01b03169052565b9d9c50505050505050505050505050565b600060018201612e5e57612e5e612c3e565b5060010190565b600081612e7457612e74612c3e565b506000190190565b634e487b7160e01b600052604160045260246000fd5b6020808252600f908201526e6f6e6c7920676f7665726e616e636560881b604082015260600190565b600060a08284031215612ecd57600080fd5b60405160a0810181811067ffffffffffffffff82111715612efe57634e487b7160e01b600052604160045260246000fd5b806040525082358152602083013560208201526040830135612f1f8161298b565b60408201526060830135612f328161298b565b60608201526080928301359281019290925250919050565b634e487b7160e01b600052601260045260246000fd5b600082612f6f57612f6f612f4a565b500490565b600082612f8357612f83612f4a565b500690565b600060208284031215612f9a57600080fd5b8151801515811461295257600080fd5b813581526020808301359082015260a081016040830135612fca8161298b565b6001600160a01b039081166040840152606084013590612fe98261298b565b16606083015260809283013592909101919091529056fea26469706673582212209cda96a978c105787208cf57b836d4f69869fddeb53a475f4e3764039c50c18f64736f6c63430008120033",
  "linkReferences": {},
  "deployedLinkReferences": {}
}