{
  "_format": "hh-sol-artifact-1",
  "contractName": "Voting",
  "sourceName": "contracts/voting/implementation/Voting.sol",
  "abi": [
    {
      "inputs": [
        {
          "internalType": "contract IVoterRegistry",
          "name": "_voterRegistry",
          "type": "address"
        },
        {
          "internalType": "contract VotingManager",
          "name": "_votingManager",
          "type": "address"
        }
      ],
      "stateMutability": "nonpayable",
      "type": "constructor"
    },
    {
      "anonymous": false,
      "inputs": [
        {
          "indexed": true,
          "internalType": "uint256",
          "name": "epochId",
          "type": "uint256"
        },
        {
          "indexed": false,
          "internalType": "bytes32",
          "name": "merkleRoot",
          "type": "bytes32"
        },
        {
          "indexed": false,
          "internalType": "uint256",
          "name": "weight",
          "type": "uint256"
        },
        {
          "indexed": false,
          "internalType": "uint256",
          "name": "threshold",
          "type": "uint256"
        },
        {
          "indexed": false,
          "internalType": "uint256",
          "name": "timestamp",
          "type": "uint256"
        }
      ],
      "name": "MerkleRootConfirmationFailed",
      "type": "event"
    },
    {
      "anonymous": false,
      "inputs": [
        {
          "indexed": true,
          "internalType": "uint256",
          "name": "epochId",
          "type": "uint256"
        },
        {
          "indexed": false,
          "internalType": "bytes32",
          "name": "merkleRoot",
          "type": "bytes32"
        },
        {
          "indexed": false,
          "internalType": "uint256",
          "name": "timestamp",
          "type": "uint256"
        }
      ],
      "name": "MerkleRootConfirmed",
      "type": "event"
    },
    {
      "inputs": [
        {
          "internalType": "bytes32",
          "name": "_commitHash",
          "type": "bytes32"
        }
      ],
      "name": "commit",
      "outputs": [],
      "stateMutability": "nonpayable",
      "type": "function"
    },
    {
      "inputs": [
        {
          "internalType": "uint256",
          "name": "_epochId",
          "type": "uint256"
        },
        {
          "internalType": "bytes32",
          "name": "_merkleRoot",
          "type": "bytes32"
        },
        {
          "components": [
            {
              "internalType": "uint8",
              "name": "v",
              "type": "uint8"
            },
            {
              "internalType": "bytes32",
              "name": "r",
              "type": "bytes32"
            },
            {
              "internalType": "bytes32",
              "name": "s",
              "type": "bytes32"
            }
          ],
          "internalType": "struct Voting.Signature[]",
          "name": "signatures",
          "type": "tuple[]"
        }
      ],
      "name": "finalize",
      "outputs": [],
      "stateMutability": "nonpayable",
      "type": "function"
    },
    {
      "inputs": [
        {
          "internalType": "uint256",
          "name": "_epochId",
          "type": "uint256"
        }
      ],
      "name": "firstSigningTimeForEpoch",
      "outputs": [
        {
          "internalType": "uint256",
          "name": "",
          "type": "uint256"
        }
      ],
      "stateMutability": "view",
      "type": "function"
    },
    {
      "inputs": [],
      "name": "getCurrentPriceEpochId",
      "outputs": [
        {
          "internalType": "uint256",
          "name": "",
          "type": "uint256"
        }
      ],
      "stateMutability": "view",
      "type": "function"
    },
    {
      "inputs": [
        {
          "internalType": "address",
          "name": "_delegator",
          "type": "address"
        },
        {
          "internalType": "address",
          "name": "_voter",
          "type": "address"
        },
        {
          "internalType": "uint256",
          "name": "_rewardEpochId",
          "type": "uint256"
        }
      ],
      "name": "getDelegatorWeightForRewardEpoch",
      "outputs": [
        {
          "internalType": "uint256",
          "name": "",
          "type": "uint256"
        }
      ],
      "stateMutability": "view",
      "type": "function"
    },
    {
      "inputs": [
        {
          "internalType": "uint256",
          "name": "_epochId",
          "type": "uint256"
        }
      ],
      "name": "getMerkleRoot",
      "outputs": [
        {
          "internalType": "bytes32",
          "name": "",
          "type": "bytes32"
        }
      ],
      "stateMutability": "view",
      "type": "function"
    },
    {
      "inputs": [
        {
          "internalType": "address",
          "name": "_voter",
          "type": "address"
        },
        {
          "internalType": "uint256",
          "name": "_epochId",
          "type": "uint256"
        }
      ],
      "name": "getVoterWeightForRewardEpoch",
      "outputs": [
        {
          "internalType": "uint256",
          "name": "",
          "type": "uint256"
        }
      ],
      "stateMutability": "view",
      "type": "function"
    },
    {
      "inputs": [
        {
          "internalType": "uint256",
          "name": "_epochId",
          "type": "uint256"
        },
        {
          "internalType": "address[]",
          "name": "_voters",
          "type": "address[]"
        }
      ],
      "name": "getVoterWeightsForEpoch",
      "outputs": [
        {
          "internalType": "uint256[]",
          "name": "",
          "type": "uint256[]"
        }
      ],
      "stateMutability": "view",
      "type": "function"
    },
    {
      "inputs": [
        {
          "internalType": "uint256",
          "name": "",
          "type": "uint256"
        }
      ],
      "name": "merkleRoots",
      "outputs": [
        {
          "internalType": "bytes32",
          "name": "",
          "type": "bytes32"
        }
      ],
      "stateMutability": "view",
      "type": "function"
    },
    {
      "inputs": [
        {
          "internalType": "bytes32",
          "name": "_hash",
          "type": "bytes32"
        },
        {
          "components": [
            {
              "internalType": "uint8",
              "name": "v",
              "type": "uint8"
            },
            {
              "internalType": "bytes32",
              "name": "r",
              "type": "bytes32"
            },
            {
              "internalType": "bytes32",
              "name": "s",
              "type": "bytes32"
            }
          ],
          "internalType": "struct Voting.Signature",
          "name": "signature",
          "type": "tuple"
        }
      ],
      "name": "recoverSigner",
      "outputs": [
        {
          "internalType": "address",
          "name": "",
          "type": "address"
        }
      ],
      "stateMutability": "pure",
      "type": "function"
    },
    {
      "inputs": [
        {
          "internalType": "bytes32",
          "name": "_random",
          "type": "bytes32"
        },
        {
          "internalType": "bytes32",
          "name": "_merkleRoot",
          "type": "bytes32"
        },
        {
          "internalType": "bytes",
          "name": "_bitVote",
          "type": "bytes"
        },
        {
          "internalType": "bytes",
          "name": "_prices",
          "type": "bytes"
        }
      ],
      "name": "revealBitvote",
      "outputs": [],
      "stateMutability": "nonpayable",
      "type": "function"
    },
    {
      "inputs": [
        {
          "internalType": "uint256",
          "name": "_epochId",
          "type": "uint256"
        },
        {
          "internalType": "bytes32",
          "name": "_merkleRoot",
          "type": "bytes32"
        },
        {
          "components": [
            {
              "internalType": "uint8",
              "name": "v",
              "type": "uint8"
            },
            {
              "internalType": "bytes32",
              "name": "r",
              "type": "bytes32"
            },
            {
              "internalType": "bytes32",
              "name": "s",
              "type": "bytes32"
            }
          ],
          "internalType": "struct Voting.Signature",
          "name": "signature",
          "type": "tuple"
        }
      ],
      "name": "signResult",
      "outputs": [],
      "stateMutability": "nonpayable",
      "type": "function"
    },
    {
      "inputs": [],
      "name": "voterRegistry",
      "outputs": [
        {
          "internalType": "contract IVoterRegistry",
          "name": "",
          "type": "address"
        }
      ],
      "stateMutability": "view",
      "type": "function"
    },
    {
      "inputs": [],
      "name": "votingManager",
      "outputs": [
        {
          "internalType": "contract VotingManager",
          "name": "",
          "type": "address"
        }
      ],
      "stateMutability": "view",
      "type": "function"
    }
  ],
  "bytecode": "0x608060405234801561001057600080fd5b506040516110a03803806110a083398101604081905261002f91610078565b600080546001600160a01b039384166001600160a01b031991821617909155600180549290931691161790556100b2565b6001600160a01b038116811461007557600080fd5b50565b6000806040838503121561008b57600080fd5b825161009681610060565b60208401519092506100a781610060565b809150509250929050565b610fdf806100c16000396000f3fe608060405234801561001057600080fd5b50600436106100ea5760003560e01c806365c602351161008c5780639abae6f7116100665780639abae6f7146101f9578063be60040e1461020c578063da1bcdf01461021f578063f14fcbc81461023257600080fd5b806365c60235146101b357806371c5ecb1146101c6578063901d0e19146101e657600080fd5b80633a4eccd2116100c85780633a4eccd2146101555780634369af801461016857806346f073cf146101805780635b8995521461019357600080fd5b806308a7f402146100ef5780630aab8ba51461010a57806315029f201461012a575b600080fd5b6100f7610243565b6040519081526020015b60405180910390f35b6100f7610118366004610b12565b60009081526002602052604090205490565b61013d610138366004610bba565b6102b6565b6040516001600160a01b039091168152602001610101565b6100f7610163366004610c03565b6103a1565b61017e610176366004610c76565b505050505050565b005b61017e61018e366004610cf9565b505050565b6101a66101a1366004610d3a565b610491565b6040516101019190610db9565b6100f76101c1366004610dfd565b61054d565b6100f76101d4366004610b12565b60026020526000908152604090205481565b61017e6101f4366004610e39565b6105d3565b6100f7610207366004610b12565b610aa4565b60005461013d906001600160a01b031681565b60015461013d906001600160a01b031681565b61017e610240366004610b12565b50565b60015460408051630453fa0160e11b815290516000926001600160a01b0316916308a7f4029160048083019260209291908290030181865afa15801561028d573d6000803e3d6000fd5b505050506040513d601f19601f820116820180604052508101906102b19190610ebc565b905090565b6000806040518060400160405280601c81526020017f19457468657265756d205369676e6564204d6573736167653a0a333200000000815250905060008185604051602001610306929190610ed5565b604051602081830303815290604052805190602001209050600060018286600001518760200151886040015160405160008152602001604052604051610368949392919093845260ff9290921660208401526040830152606082015260800190565b6020604051602081039080840390855afa15801561038a573d6000803e3d6000fd5b5050604051601f1901519450505050505b92915050565b60008054600154604051633cb6b68160e01b8152600481018590526001600160a01b0392831692633a4eccd2928792911690633cb6b68190602401602060405180830381865afa1580156103f9573d6000803e3d6000fd5b505050506040513d601f19601f8201168201806040525081019061041d9190610ebc565b6040516001600160e01b031960e085901b1681526001600160a01b0390921660048301526024820152604401602060405180830381865afa158015610466573d6000803e3d6000fd5b505050506040513d601f19601f8201168201806040525081019061048a9190610ebc565b9392505050565b606060008267ffffffffffffffff8111156104ae576104ae610b2b565b6040519080825280602002602001820160405280156104d7578160200160208202803683370190505b50905060005b83811015610544576105158585838181106104fa576104fa610f07565b905060200201602081019061050f9190610f1d565b876103a1565b82828151811061052757610527610f07565b60209081029190910101528061053c81610f4e565b9150506104dd565b50949350505050565b600080546040516305c3a13360e41b81526001600160a01b03868116600483015285811660248301526044820185905290911690635c3a133090606401602060405180830381865afa1580156105a7573d6000803e3d6000fd5b505050506040513d601f19601f820116820180604052508101906105cb9190610ebc565b949350505050565b600084815260026020526040902054156106345760405162461bcd60e51b815260206004820152601960248201527f65706f6368496420616c72656164792066696e616c697a65640000000000000060448201526064015b60405180910390fd5b60015460405163f85f6e5f60e01b8152600481018690526001600160a01b039091169063f85f6e5f90602401602060405180830381865afa15801561067d573d6000803e3d6000fd5b505050506040513d601f19601f820116820180604052508101906106a19190610ebc565b4210156106e45760405162461bcd60e51b81526020600482015260116024820152707369676e696e6720746f6f206561726c7960781b604482015260640161062b565b60015460405163ab4fe9f760e01b8152600481018690526001600160a01b039091169063ab4fe9f790602401602060405180830381865afa15801561072d573d6000803e3d6000fd5b505050506040513d601f19601f820116820180604052508101906107519190610ebc565b4211156107935760405162461bcd60e51b815260206004820152601060248201526f7369676e696e6720746f6f206c61746560801b604482015260640161062b565b60008054600154604051633cb6b68160e01b8152600481018890526001600160a01b039283169263849d9dd7921690633cb6b68190602401602060405180830381865afa1580156107e8573d6000803e3d6000fd5b505050506040513d601f19601f8201168201806040525081019061080c9190610ebc565b6040518263ffffffff1660e01b815260040161082a91815260200190565b602060405180830381865afa158015610847573d6000803e3d6000fd5b505050506040513d601f19601f8201168201806040525081019061086b9190610ebc565b90506000805b83811015610a515760006108a78787878581811061089157610891610f07565b9050606002018036038101906101389190610f67565b90506001600160a01b03811615610a3e5760006108c4828a6103a1565b90506108d08185610f83565b935084841115610a3c576000898152600260209081526040918290208a90556001548251631e82f93b60e31b815292516001600160a01b039091169263f417c9d89260048083019391928290030181865afa158015610933573d6000803e3d6000fd5b505050506040513d601f19601f820116820180604052508101906109579190610ebc565b89106109f8576000801b60026000600160009054906101000a90046001600160a01b03166001600160a01b031663f417c9d86040518163ffffffff1660e01b8152600401602060405180830381865afa1580156109b8573d6000803e3d6000fd5b505050506040513d601f19601f820116820180604052508101906109dc9190610ebc565b6109e6908d610f96565b81526020810191909152604001600020555b604080518981524260208201528a917fd5e2b4b7fb063ca6d9de28637472fa86e28d36b6448aa7fe4388344284811aa8910160405180910390a25050505050610a9e565b505b5080610a4981610f4e565b915050610871565b50604080518681526020810183905290810183905242606082015286907f6e29bab708ec8d00179e62e98f6e381af6aac7ad8ea2eef79160a38b6ffaae779060800160405180910390a250505b50505050565b60015460405163f85f6e5f60e01b8152600481018390526000916001600160a01b03169063f85f6e5f90602401602060405180830381865afa158015610aee573d6000803e3d6000fd5b505050506040513d601f19601f8201168201806040525081019061039b9190610ebc565b600060208284031215610b2457600080fd5b5035919050565b634e487b7160e01b600052604160045260246000fd5b600060608284031215610b5357600080fd5b6040516060810181811067ffffffffffffffff82111715610b8457634e487b7160e01b600052604160045260246000fd5b604052905080823560ff81168114610b9b57600080fd5b8082525060208301356020820152604083013560408201525092915050565b60008060808385031215610bcd57600080fd5b82359150610bde8460208501610b41565b90509250929050565b80356001600160a01b0381168114610bfe57600080fd5b919050565b60008060408385031215610c1657600080fd5b610c1f83610be7565b946020939093013593505050565b60008083601f840112610c3f57600080fd5b50813567ffffffffffffffff811115610c5757600080fd5b602083019150836020828501011115610c6f57600080fd5b9250929050565b60008060008060008060808789031215610c8f57600080fd5b8635955060208701359450604087013567ffffffffffffffff80821115610cb557600080fd5b610cc18a838b01610c2d565b90965094506060890135915080821115610cda57600080fd5b50610ce789828a01610c2d565b979a9699509497509295939492505050565b600080600083850360a0811215610d0f57600080fd5b84359350602085013592506060603f1982011215610d2c57600080fd5b506040840190509250925092565b600080600060408486031215610d4f57600080fd5b83359250602084013567ffffffffffffffff80821115610d6e57600080fd5b818601915086601f830112610d8257600080fd5b813581811115610d9157600080fd5b8760208260051b8501011115610da657600080fd5b6020830194508093505050509250925092565b6020808252825182820181905260009190848201906040850190845b81811015610df157835183529284019291840191600101610dd5565b50909695505050505050565b600080600060608486031215610e1257600080fd5b610e1b84610be7565b9250610e2960208501610be7565b9150604084013590509250925092565b60008060008060608587031215610e4f57600080fd5b8435935060208501359250604085013567ffffffffffffffff80821115610e7557600080fd5b818701915087601f830112610e8957600080fd5b813581811115610e9857600080fd5b886020606083028501011115610ead57600080fd5b95989497505060200194505050565b600060208284031215610ece57600080fd5b5051919050565b6000835160005b81811015610ef65760208187018101518583015201610edc565b509190910191825250602001919050565b634e487b7160e01b600052603260045260246000fd5b600060208284031215610f2f57600080fd5b61048a82610be7565b634e487b7160e01b600052601160045260246000fd5b600060018201610f6057610f60610f38565b5060010190565b600060608284031215610f7957600080fd5b61048a8383610b41565b8082018082111561039b5761039b610f38565b8181038181111561039b5761039b610f3856fea26469706673582212202ed1562e493daa8f370b574237249ce76e9d3476841d23884b62cba4163e432464736f6c63430008120033",
  "linkReferences": {},
  "deployedLinkReferences": {}
}